:100000000C9499010C94CA010C94CA010C94CA0175
:100010000C94CA010C94CA010C94CA010C94CA0134
:100020000C94CA010C94CA010C94CA010C94CA0124
:100030000C94CA010C94CA010C94CA010C94CA0114
:100040000C94CA010C942B050C94CA010C94CA019F
:100050000C94CA010C94CA010C94CA010C94D508E2
:100060000C94CA010C946B040C9441040C94CA01C6
:100070000C94CA010C94CA010C94CA010C94CA01D4
:100080000C94FD040C94CA010C94CA010C94CA018E
:100090000C94CA010C94CA010C94CA010C94CA01B4
:1000A0000C94CA010C94CA010C94CF040C94CA019C
:1000B0000C94CA010C94CA010C94CA010C94A104BA
:1000C0000C94CA010C94CA010C94CA010C94CA0184
:1000D0000C94CA010C94CA010C94CA010C94CA0174
:1000E0000C94CA01CC05D205DC05EA05EC05F20545
:1000F000FC050A061C061E065606590648064C064E
:10010000520690065D06610667066B066F06750669
:1001100079067D069006830687068B06FB07000896
:1001200005080F081908920823082B0833083D0812
:100130004708510860086A08920874087E08880811
:100140000C948B060C9459060C9405080C94FA0137
:100150000C940A060C94D2050C941A0C0C944708C3
:100160000C9463020C9448060C94F2050C9400085D
:100170000C9483060C94B0020C946F060C9419082E
:100180000C9452060C94FC050C9474080C942308EF
:100190000C94EC050C942B020C941E060C942B086A
:1001A0000C941D020C94FB070C9490060C946A08A6
:1001B0000C9492080C94DC050C945D060C947E085B
:1001C0000C9460080C94EA050C9475060C94560681
:1001D0000C944C060C94CC050C947D060C945108A0
:1001E0000C9487060C940F080C9409020C943308A5
:1001F0000C94CC010C943D080C941C060C946B06DA
:100200000C9461060C9488080C9479060C9467068B
:1002100000002100240027002A002D0030003300B8
:1002200001010000040107010A010000220025006D
:1002300028002B002E0031003400020100000501CF
:1002400008010B01000020002300260029002C00DB
:100250002F0032000001000003010601090105051D
:100260000505070508080808020202020A0A08082C
:10027000040404040101010101010101030303035A
:1002800003030303040707070C0C0C0C0C0C0C0CE9
:100290000202020206060606060606060B0B0B0BFA
:1002A0000B0B0B0B0102102020080810204010201F
:1002B000408002010201080402010102040810202A
:1002C0004080804020100804020180040201804028
:1002D0002010080402010804020101020408102091
:1002E0004080010204081020408000000A0B02092F
:1002F0000C0D0E08070304010000000000000000C0
:1003000000000000000000000000000000000000ED
:1003100000000000000012111000000000000000AA
:1003200000000000000000000000000000000000CD
:100330001A0C11241FBECFEFD1E2DEBFCDBF00E00B
:100340000CBF13E0A0E0B2E0EEE4FBE100E00BBF85
:1003500002C007900D92A434B107D9F726E0A4E4B7
:10036000B3E001C01D92A737B207E1F711E0C9E978
:10037000D1E000E006C021970109802FFE010E9414
:10038000980DC839D10780E00807A9F70E941F0916
:100390000C94A50D0C940000CF92DF92EF92FF9287
:1003A0000F931F93CF93DF936C017A018B01C0E011
:1003B000D0E0CE15DF0581F0D8016D918D01D60119
:1003C000ED91FC910190F081E02DC6011995892BEA
:1003D00011F02196EECF7E01C701DF91CF911F91E1
:1003E0000F91FF90EF90DF90CF900895089580E0F7
:1003F00090E00895FC01538D448D252F30E0842F2B
:1004000090E0821B930B541710F0CF96089501973C
:100410000895FC01918D828D981761F0828DDF0126
:10042000A80FB11D5D968C91928D9F5F9F73928FE7
:1004300090E008958FEF9FEF0895FC01918D828DDC
:10044000981731F0828DE80FF11D858D90E00895A9
:100450008FEF9FEF0895FC01918D228D892F90E001
:10046000805C9F4F821B91098F739927089588E5BF
:1004700093E00E942B0221E0892B09F420E0822FD7
:100480000895FC01848DDF01A80FB11DA35ABF4F51
:100490002C91848D90E001968F739927848FA68983
:1004A000B7892C93A089B1898C91837080648C93D7
:1004B000938D848D981306C00288F389E02D808186
:1004C0008F7D80830895EF92FF920F931F93CF93B8
:1004D000DF93EC0181E0888F9B8D8C8D981305C094
:1004E000E889F989808185FD26C0F62E0B8D10E004
:1004F0000F5F1F4F0F731127E02E8C8DE8120CC079
:100500000FB607FCFACFE889F989808185FFF5CF1E
:10051000CE010E944102F1CF8B8DFE01E80FF11D4B
:10052000E35AFF4FF0829FB7F8940B8FEA89FB895B
:10053000808180620AC09FB7F894EE89FF8960834A
:10054000E889F98980818370806480839FBF81E01E
:1005500090E0DF91CF911F910F91FF90EF90089560
:10056000CF93DF93EC01888D8823C9F0EA89FB895A
:10057000808185FD05C0A889B9898C9186FD0FC051
:100580000FB607FCF5CF808185FFF2CFA889B98926
:100590008C9185FFEDCFCE010E944102E7CFDF9124
:1005A000CF91089580E090E0892B21F00E943702DE
:1005B000811125C080E090E0892B41F080E090E03F
:1005C000892B21F00E94000081111CC080E090E086
:1005D000892B41F080E090E0892B21F00E940000FF
:1005E000811113C080E090E0892BA1F080E090E0C1
:1005F000892B81F00E94000081110AC008950E9499
:100600000000D8CF0E940000E1CF0E940000EACF96
:100610000C9400000895CF92DF92EF92FF920F9317
:100620001F93CF93DF936C018B017A01EC01CC5BBC
:10063000DC4F888187FF04C0FB011182108224C037
:100640002CE02C9DC0012D9D900D11242881AC0122
:10065000420F511D27FD5A952091850430E0421725
:10066000530794F42881AC01420F511D27FD5A9580
:100670009A01FA01EE0FFF1F2E0F3F1FF901EB50F9
:10068000FC4F208126FD19C088818F5F88832CE074
:100690002C9DC0012D9D900D11242881AC01420F8D
:1006A000511D27FD5A952091850430E042175307CC
:1006B000BCF428812C3044F113C02881820F911D95
:1006C00027FD9A95FC01EE0FFF1F8E0F9F1FFC0167
:1006D000EB50FC4F808160E08F730E946707D4CF9E
:1006E000F80180819181049680349C4918F480E45B
:1006F0009CE904C0F801808191810496F7019183FF
:1007000080838FEF888345C0F80140815181288123
:10071000BC01620F711D27FD7A959B01FB01EE0F55
:10072000FF1F2E0F3F1FF901EB50FC4F218132813B
:10073000240F351FF701318320832881AC01420F3C
:10074000511D27FD5A959A01FA01EE0FFF1F2E0F3A
:100750003F1FF901EB50FC4F208126FF1AC0288172
:10076000820F911D27FD9A95FC01EE0FFF1F8E0F42
:100770009F1FFC01EB50FC4F808161E08F73DF9184
:10078000CF911F910F91FF90EF90DF90CF900C943D
:100790006707DF91CF911F910F91FF90EF90DF904E
:1007A000CF90089582E192E00E94C80661E089E05E
:1007B0000E94670761E088E00C94670780E20E946E
:1007C0003E0790934B0380934A038EE10E943E07BD
:1007D00090934D0380934C038CE10E943E079093CD
:1007E0004F0380934E038AE10E943E079093570384
:1007F0008093560388E10E943E07909355038093AF
:10080000540386E10E943E07909351038093500366
:1008100008950E94A00DCF93DF93CDB7DEB7A197C7
:100820000FB6F894DEBF0FBECDBF8DE192E00E94FF
:10083000B60619A280E388A3CE0180960E94B60670
:100840008DE292E00E94B606A1960FB6F894DEBF44
:100850000FBECDBFDF91CF91089580E392E00E945B
:10086000C80689E894E00E94D70686E894E00E94D2
:10087000D70686EA94E00E94D6068CE894E00C94B1
:10088000D6061F920F920FB60F9211240BB60F923D
:100890002F933F934F935F936F937F938F939F9388
:1008A000AF93BF93EF93FF9388E593E00E944102DB
:1008B000FF91EF91BF91AF919F918F917F916F9138
:1008C0005F914F913F912F910F900BBE0F900FBEF4
:1008D0000F901F9018951F920F920FB60F92112430
:1008E0000BB60F922F938F939F93EF93FF93E0910B
:1008F0006803F09169038081E0916E03F0916F03CA
:1009000082FD12C09081809171038F5F8F7320915F
:100910007203821751F0E0917103F0E0E85AFC4F46
:10092000958F8093710301C08081FF91EF919F911A
:100930008F912F910F900BBE0F900FBE0F901F90B5
:1009400018951F920F920FB60F9211240BB60F92AB
:100950002F933F934F935F936F937F938F939F93C7
:10096000AF93BF93EF93FF9348E251E064E271E0ED
:1009700080E090E00E940B03FF91EF91BF91AF9157
:100980009F918F917F916F915F914F913F912F91A7
:100990000F900BBE0F900FBE0F901F9018951F92D7
:1009A0000F920FB60F9211240BB60F922F933F9315
:1009B0004F935F936F937F938F939F93AF93BF9367
:1009C000EF93FF9348EA50E064EA70E083E090E040
:1009D0000E940B03FF91EF91BF91AF919F918F9177
:1009E0007F916F915F914F913F912F910F900BBE2F
:1009F0000F900FBE0F901F9018951F920F920FB679
:100A00000F9211240BB60F922F933F934F935F9346
:100A10006F937F938F939F93AF93BF93EF93FF93C6
:100A200048E950E064E970E082E090E00E940B0346
:100A3000FF91EF91BF91AF919F918F917F916F91B6
:100A40005F914F913F912F910F900BBE0F900FBE72
:100A50000F901F9018951F920F920FB60F921124AE
:100A60000BB60F922F933F934F935F936F937F93A8
:100A70008F939F93AF93BF93EF93FF9348E850E01A
:100A800064E870E081E090E00E940B03FF91EF9139
:100A9000BF91AF919F918F917F916F915F914F9196
:100AA0003F912F910F900BBE0F900FBE0F901F9094
:100AB00018950F931F93CF93DF93EC018B018885DB
:100AC00099850297F1F46130710569F024F4672B80
:100AD000C1F460E009C06230710559F063307105FE
:100AE00081F460E007C061E08C850E94670761E0E7
:100AF00005C061E08C850E94670760E08E850E94DA
:100B00006707888599850497B9F501301105B1F01B
:100B10004CF40115110581F561E08C850E94670791
:100B200060E011C002301105B9F00330110521F564
:100B300061E08C850E94670760E013C060E08C85EF
:100B40000E94670761E08E850E94670761E08889DF
:100B50000E94670760E00DC060E08C850E94670717
:100B600061E08E850E94670760E088890E946707C0
:100B700061E08A890E94670788859985059709F051
:100B800075C00A30110508F071C0F8018827EE58C9
:100B9000FF4F8F4F0C94980D60E08C850E94670783
:100BA00061E051C060E08C850E94670761E08E853E
:100BB0000E94670760E04BC060E08C850E94670779
:100BC00061E08E850E94670760E088890E94670760
:100BD00061E041C060E001C061E08C850E94670770
:100BE00061E005C061E08C850E94670760E08E854A
:100BF0000E94670760E009C061E08C850E9467077A
:100C000060E08E850E94670761E088890E9467071F
:100C100061E00DC061E08C850E94670760E08E8511
:100C20000E94670761E088890E94670760E08A89FF
:100C30000E94670760E013C061E001C060E08C853E
:100C40000E94670760E08E850E94670761E08889DF
:100C50000E94670760E08A890E94670761E08C89CB
:100C6000DF91CF911F910F910C946707DF91CF9186
:100C70001F910F91089590E0FC013197E231F10549
:100C800008F04EC08827E458FF4F8F4F0C94980D02
:100C9000809180008F7703C0809180008F7D80934A
:100CA0008000089580918000877FF9CF84B58F7789
:100CB00002C084B58F7D84BD08958091B0008F7788
:100CC00003C08091B0008F7D8093B0000895809123
:100CD00090008F7707C0809190008F7D03C0809136
:100CE0009000877F8093900008958091A0008F7777
:100CF00007C08091A0008F7D03C08091A000877FF6
:100D00008093A0000895809120018F7707C0809183
:100D100020018F7D03C080912001877F8093200177
:100D200008953FB7F8948091C5049091C604A091AE
:100D3000C704B091C80426B5A89B05C02F3F19F081
:100D40000196A11DB11D3FBFBA2FA92F982F88274B
:100D5000820F911DA11DB11DBC01CD0142E0660FA6
:100D6000771F881F991F4A95D1F70895009769F05A
:100D7000FC0101900020E9F73197AF01481B590BA6
:100D8000BC0188E593E00C94CC0180E090E00895EC
:100D9000CF93DF930E94B606EC018DE292E00E94B1
:100DA000B6068C0F9D1FDF91CF91089508958F9205
:100DB0009F92AF92BF92EF92FF921F93CF93DF93D8
:100DC000FC011081103308F04FC0828128E532E029
:100DD0007901E81AF10887FDF394EE0CFF1CEE0C84
:100DE000FF1C8181C8E8D0E0C81BD10987FDD395DD
:100DF000CC0FDD1FCC0FDD1F4E010D2E000CAA08FD
:100E0000BB08C7010F2C000CAA0BBB0B9C01AD014A
:100E1000281939094A095B09AAE5B0E00E945C0D6E
:100E200024EB30E040E050E00E943D0D820E931E26
:100E3000A41EB51E8C169D062CF0E7018E149F048F
:100E40000CF4E4012297CC0FDD1F2FB7F894812F0B
:100E500090E0FC01EE0FFF1F8E0F9F1FFC01EB5077
:100E6000FC4FD283C1832FBFDF91CF911F91FF90A1
:100E7000EF90BF90AF909F908F900895CF93DF93A6
:100E8000282F30E0F901E651FD4F8491F901EC552E
:100E9000FD4FD491F901E25AFD4FC491CC2391F05A
:100EA00081110E943B06EC2FF0E0EE0FFF1FEC5B80
:100EB000FD4FA591B491EC91ED2381E090E021F4F8
:100EC00080E002C080E090E0DF91CF9108951F9311
:100ED000CF93DF93282F30E0F901E651FD4F849145
:100EE000F901EC55FD4FD491F901E25AFD4FC4913F
:100EF000CC23C1F0162F81110E943B06EC2FF0E0AD
:100F0000EE0FFF1FE65DFD4FA591B4919FB7F894DA
:100F1000111104C08C91D095D82302C0EC91DE2B26
:100F2000DC939FBFDF91CF911F910895CF93DF9303
:100F300090E0FC01EC55FD4F2491FC01E25AFD4F7D
:100F40008491882361F190E0880F991FFC01E05F94
:100F5000FD4FC591D491FC01E65DFD4FA591B49183
:100F6000611109C09FB7F8948881209582238883F6
:100F7000EC912E230BC0623061F49FB7F894888106
:100F8000322F309583238883EC912E2B2C939FBF97
:100F900006C08FB7F894E8812E2B28838FBFDF918E
:100FA000CF9108951F93CF93DF93182FEB0161E04A
:100FB0000E949607209711F460E004C0CF3FD1054E
:100FC00039F461E0812FDF91CF911F910C94670775
:100FD000E12FF0E0E651FD4FE4918E2F90E0FC010F
:100FE0003197E231F10508F09DC08827E257FF4FA5
:100FF0008F4F0C94980D84B5806884BDC7BD97C091
:1010000084B5806284BDC8BD92C080918000806834
:1010100080938000D0938900C093880088C080911D
:101020008000806280938000D0938B00C0938A0000
:101030007EC080918000886080938000D0938D0076
:10104000C0938C0074C08091B00080688093B00021
:10105000C093B3006CC08091B00080628093B000F8
:10106000C093B40064C08091900080688093900029
:10107000D0939900C09398005AC0809190008062EC
:1010800080939000D0939B00C0939A0050C08091B1
:101090009000886080939000D0939D00C0939C0046
:1010A00046C08091A00080688093A0008091A0003D
:1010B0008F7B8093A000D093A900C093A80037C075
:1010C0008091A00080628093A000D093AB00C09379
:1010D000AA002DC08091A00088608093A000D093CA
:1010E000AD00C093AC0023C0809120018068809344
:1010F0002001D0932901C093280119C080912001BB
:10110000806280932001D0932B01C0932A010FC0ED
:1011100080912001886080932001D0932D01C0939D
:101120002C0105C0C038D1050CF04BCF45CFDF9165
:10113000CF911F9108958F929F92AF92BF92CF92BD
:10114000DF92EF92FF926B017C010E9491064B01AE
:101150005C01C114D104E104F104F1F00E94910694
:10116000DC01CB0188199909AA09BB09883E934083
:10117000A105B10570F321E0C21AD108E108F10818
:1011800088EE880E83E0981EA11CB11CC114D10406
:10119000E104F10419F7DDCFFF90EF90DF90CF90DD
:1011A000BF90AF909F908F9008951F920F920FB6AF
:1011B0000F9211242F933F938F939F93AF93BF93DD
:1011C0008091C1049091C204A091C304B091C40461
:1011D0003091C00423E0230F2D3720F40196A11D88
:1011E000B11D05C026E8230F0296A11DB11D209355
:1011F000C0048093C1049093C204A093C304B0932D
:10120000C4048091C5049091C604A091C704B09114
:10121000C8040196A11DB11D8093C5049093C60416
:10122000A093C704B093C804BF91AF919F918F91D1
:101230003F912F910F900FBE0F901F9018957894AB
:1012400084B5826084BD84B5816084BD85B58260CB
:1012500085BD85B5816085BD80916E00816080937C
:101260006E001092810080918100826080938100E5
:1012700080918100816080938100809180008160F5
:10128000809380008091B10084608093B100809150
:10129000B00081608093B000809191008260809363
:1012A00091008091910081608093910080919000E5
:1012B0008160809390008091A10082608093A10062
:1012C0008091A10081608093A1008091A000816045
:1012D0008093A00080912101826080932101809100
:1012E00021018160809321018091200181608093A0
:1012F000200180917A00846080937A0080917A0046
:10130000826080937A0080917A00816080937A0075
:1013100080917A00806880937A001092C10061E029
:101320008CE00E94960761E089E00E94960761E0E8
:101330008DE00E94960761E088E00E94960760E0D9
:1013400086E10E94960760E088E10E94960760E0CF
:101350008AE10E94960760E08CE10E94960760E0B7
:101360008EE10E94960760E080E20E949607E0917D
:101370006803F091690382E08083E0916403F09157
:1013800065031082E0916603F09167038FEC808320
:1013900010927003E0916C03F0916D0386E08083FE
:1013A000E0916A03F0916B03808180618083E0911A
:1013B0006A03F0916B03808188608083E0916A0307
:1013C000F0916B03808180688083E0916A03F091E3
:1013D0006B0380818F7D80830E942D040E94D20345
:1013E0008091480390914903892B09F0B7C00E946E
:1013F000DE0380915403909155030197F1F480919D
:101400005603909157030197C1F480915003909136
:1014100051038130910589F420914E0330914F039F
:10142000232B59F420914C0330914D03232B29F4A5
:101430009093490380934803D3CF86E492E00E94BF
:10144000C8066AE070E080E090E00E949B08C8CF88
:1014500065E070E080E090E00E949B080E94DE035F
:1014600080914E0390914F03019709F0A6C08FE63B
:1014700092E00E94C8066EE571E080E090E00E9474
:101480009B080E94DE0380914E0390914F030197C9
:1014900009F08CC0C0914C03D0914D03C130D105EF
:1014A00009F084C06CEE73E180E090E00E949B083C
:1014B00085E792E00E94C806D0935303C09352037D
:1014C0000E94DE0380914E0390914F03019709F42F
:1014D000D7C00E94DE03809152039091530301977D
:1014E00009F472C10E94DE03809154039091550368
:1014F0000197B1F48CE293E00E94C8066FEF70E0B0
:1015000083E00E94D20761E08CE00E94670764E1FB
:1015100070E08BE00E94D20761E08DE00E946707D7
:1015200080915603909157030197B1F48CE293E0B8
:101530000E94C80664E170E083E00E94D20761E087
:101540008CE00E9467076FEF70E08BE00E94D2078B
:1015500061E08DE00E9467070E94D2020E94DE03D4
:101560008EE592E00E94C80661E08CE00E94670769
:1015700060E089E00E9467076FEF70E083E00E94FF
:10158000D20761E08DE00E94670760E088E00E947A
:1015900067076FEF70E08BE00E94D20780914C03E9
:1015A00090914D03019709F08BCF52CF0E94D20347
:1015B0000E942D040E940B0483CF80E20E943E070C
:1015C00090934B0380934A0380914A0390914B037D
:1015D000019761F480E20E943E0790934B03809351
:1015E0004A038FE892E00E94C806EECF84EA92E0B8
:1015F0000E94C8060E94D20368EC70E080E090E090
:101600000E949B088EEA92E00E94C80660E089E092
:101610000E94670760E08CE00E9467076FEF70E050
:1016200083E00E94D20760E088E00E94670761E0E3
:101630008DE00E9467076FEF70E08BE00E94D20799
:1016400086E10E943E07909351038093500380915E
:10165000500390915103892B61F486E10E943E076B
:1016600090935103809350038FEB92E00E94C80641
:10167000EECF86EC92E00E94C8060E94D20320CFF3
:101680008FEC92E00E94C80665E070E080E090E098
:101690000E949B080E94DE0380914C0390914D03B1
:1016A000019779F58FE692E00E94C8066EE571E039
:1016B00080E090E00E949B080E94DE0380914E0330
:1016C00090914F030197B1F4C0914C03D0914D0319
:1016D000C130D10579F46CEE73E180E090E00E94B6
:1016E0009B0885E792E00E94C806D0935303C093FD
:1016F0005203EFCE0E94D2030E942D040E940B04DD
:10170000E8CE80E20E943E0790934B0380934A0309
:1017100080914A0390914B03019761F480E20E940B
:101720003E0790934B0380934A0383EE92E00E941E
:10173000C806EECF84EA92E00E94C8060E94D20357
:1017400068EC70E080E090E00E949B0887EF92E0F8
:101750000E94C80661E08CE00E94670760E089E0B3
:101760000E9467076FEF70E083E00E94D20760E09D
:101770008DE00E94670760E088E00E9467076FEFD6
:1017800070E08BE00E94D20786E10E943E079093B2
:101790005103809350038091500390915103892B02
:1017A00061F486E10E943E079093510380935003B9
:1017B0008FEB92E00E94C806EECF86EC92E00E948A
:1017C000C8060E94D20385CE86E10E943E07909310
:1017D00051038093500380915003909151030197DE
:1017E000D9F461E08CE00E94670760E089E00E9424
:1017F000670767E870E083E00E94D20761E08DE050
:101800000E94670760E088E00E94670767E870E071
:101810008BE00E94D207D8CF80915203909153035E
:10182000019709F05FCE0E94D20387E093E00E9407
:10183000C806F2CF0F931F93CF93DF9310925B03F1
:1018400010925A0388EE93E0A0E0B0E080935C032E
:1018500090935D03A0935E03B0935F0384E092E0F6
:10186000909359038093580385EC90E0909365031F
:101870008093640384EC90E0909367038093660305
:1018800080EC90E0909369038093680381EC90E092
:1018900090936B0380936A0382EC90E090936D03C6
:1018A00080936C0386EC90E090936F0380936E03BB
:1018B00010927103109272031092730310927403CA
:1018C000E9ECF4E08EEA91E0DF019C011D922150E9
:1018D0003040E1F78AEC94E0909312068093110671
:1018E0001092B1041092B0041092A7041092A604B2
:1018F0001092BC041092BD041092BE041092BF045A
:1019000008EC10E01093AD040093AC048DE290E07D
:101910009093B3048093B2048FE290E09093B50467
:101920008093B40481E390E09093B7048093B6046D
:1019300083E390E09093B9048093B80461E08DE272
:101940000E94960761E08091B4040E94960761E0CE
:101950008091B6040E94960761E08091B8040E94CD
:1019600096071092BB041092BA04C4E0D0E0D09362
:10197000AF04C093AE041092970410929604109294
:101980008D0410928C041092A2041092A304109261
:10199000A4041092A504109393040093920489E187
:1019A00090E090939904809398048BE190E0909359
:1019B0009B0480939A048DE190E090939D04809322
:1019C0009C048FE190E090939F0480939E0461E0DB
:1019D00089E10E94960761E080919A040E9496072F
:1019E00061E080919C040E94960761E080919E04D2
:1019F0000E9496071092A1041092A004D09395041F
:101A0000C0939404809185048033A0F491E0980FF2
:101A1000909385048093890490E0FC01EE0FFF1FF2
:101A20008E0F9F1FFC01EB50FC4F88EB9BE09283D5
:101A3000818303C08FEF8093890480918504803374
:101A4000A0F491E0980F909385048093860490E031
:101A5000FC01EE0FFF1F8E0F9F1FFC01EB50FC4F90
:101A600088EB9BE09283818303C08FEF8093860491
:101A7000DF91CF911F910F910895052E97FB1EF4D2
:101A800000940E94540D57FD07D00E94670D07FC7B
:101A900003D04EF40C94540D5095409530952195FB
:101AA0003F4F4F4F5F4F089590958095709561958A
:101AB0007F4F8F4F9F4F08950E94890DA59F900DD6
:101AC000B49F900DA49F800D911D11240895A1E253
:101AD0001A2EAA1BBB1BFD010DC0AA1FBB1FEE1FA8
:101AE000FF1FA217B307E407F50720F0A21BB30BF3
:101AF000E40BF50B661F771F881F991F1A9469F76F
:101B000060957095809590959B01AC01BD01CF01CA
:101B10000895A29FB001B39FC001A39F700D811DC6
:101B20001124911DB29F700D811D1124911D0895E6
:101B3000EE0FFF1F881F8BBF0790F691E02D1994C1
:0E1B400081E090E0F8940C94A50DF894FFCF8E
:101B4E00000000006302CC01FA01B0022B02090270
:101B5E001D026175746F2073746F70740044697325
:101B6E0074616E636520286D6D293A20000D0A00A0
:101B7E00537461617420696E20686F6D65706F7348
:101B8E006974696F6E004465206175746F206973A6
:101B9E002065656E20696D62656369656C004472CF
:101BAE006976696E67207374726169676874007014
:101BBE0061757A650068696A207374616174206E5C
:101BCE007520696E207A696A6E2073746F70005387
:101BDE0036206973207A7761727420726563687437
:101BEE00736F6D00533620697320776974004761F7
:101BFE006174206E61617220726563687473005344
:101C0E003120776974005331207A776172740049FC
:101C1E006B2062656E2065656E20696D6269636911
:101C2E00656C005336206973207A77617274206C6C
:101C3E00696E6B736F6D0047616174206E616172C6
:101C4E00206C696E6B730068696A2069732061612C
:101C5E006E206865742065696E64652076616E20FD
:101C6E00686574207472616A65637400636F727262
:101C7E00696765657274206E616172207265636852
:041C8E00747300006B
:00000001FF
