:100000000C9499010C94CA010C94CA010C94CA0175
:100010000C94CA010C94CA010C94CA010C94CA0134
:100020000C94CA010C94CA010C94CA010C94CA0124
:100030000C94CA010C94CA010C94CA010C94CA0114
:100040000C94CA010C94F5040C94CA010C94CA01D6
:100050000C94CA010C94CA010C94CA010C94A10816
:100060000C94CA010C9435040C940B040C94CA0132
:100070000C94CA010C94CA010C94CA010C94CA01D4
:100080000C94C7040C94CA010C94CA010C94CA01C4
:100090000C94CA010C94CA010C94CA010C94CA01B4
:1000A0000C94CA010C94CA010C9499040C94CA01D2
:1000B0000C94CA010C94CA010C94CA010C946B04F0
:1000C0000C94CA010C94CA010C94CA010C94CA0184
:1000D0000C94CA010C94CA010C94CA010C94CA0174
:1000E0000C94CA0196059C05A605B405B605BC0589
:1000F000C605D405E605E805200623061206160601
:100100001C065A0627062B063106350639063F0619
:10011000430647065A064D0651065506C707CC0743
:10012000D107DB07E5075E08EF07F707FF070908B8
:1001300013081D082C0836085E0840084A085408B1
:100140000C94D4050C9447060C944A080C94C605EC
:100150000C94B6050C94EC0B0C9423060C94090239
:100160000C941C060C9412060C94FF070C94FA01D4
:100170000C94EF070C941D080C9440080C94DB07BA
:100180000C9451060C9409080C9435060C94E60561
:100190000C9420060C9431060C942B020C94390616
:1001A0000C9455060C94CC010C945E080C942C080D
:1001B0000C9413080C9463020C94F7070C949605A6
:1001C0000C94B4050C9427060C94A6050C945A06BE
:1001D0000C94CC070C9443060C943F060C944D06EB
:1001E0000C94E5070C941D020C9454080C94BC0567
:1001F0000C94B0020C942B060C949C050C94C7072D
:100200000C94E8050C9436080C9416060C94D1074F
:1002100000002100240027002A002D0030003300B8
:1002200001010000040107010A010000220025006D
:1002300028002B002E0031003400020100000501CF
:1002400008010B01000020002300260029002C00DB
:100250002F0032000001000003010601090105051D
:100260000505070508080808020202020A0A08082C
:10027000040404040101010101010101030303035A
:1002800003030303040707070C0C0C0C0C0C0C0CE9
:100290000202020206060606060606060B0B0B0BFA
:1002A0000B0B0B0B0102102020080810204010201F
:1002B000408002010201080402010102040810202A
:1002C0004080804020100804020180040201804028
:1002D0002010080402010804020101020408102091
:1002E0004080010204081020408000000A0B02092F
:1002F0000C0D0E08070304010000000000000000C0
:1003000000000000000000000000000000000000ED
:1003100000000000000012111000000000000000AA
:1003200000000000000000000000000000000000CD
:10033000EC0B11241FBECFEFD1E2DEBFCDBF00E03A
:100340000CBF13E0A0E0B2E0E2EFFAE100E00BBF87
:1003500002C007900D92A433B107D9F726E0A4E3B9
:10036000B3E001C01D92A736B207E1F711E0C9E979
:10037000D1E000E006C021970109802FFE010E9414
:100380006A0DC839D10780E00807A9F70E94EB0879
:100390000C94770D0C940000CF92DF92EF92FF92B5
:1003A0000F931F93CF93DF936C017A018B01C0E011
:1003B000D0E0CE15DF0581F0D8016D918D01D60119
:1003C000ED91FC910190F081E02DC6011995892BEA
:1003D00011F02196EECF7E01C701DF91CF911F91E1
:1003E0000F91FF90EF90DF90CF900895089580E0F7
:1003F00090E00895FC01538D448D252F30E0842F2B
:1004000090E0821B930B541710F0CF96089501973C
:100410000895FC01918D828D981761F0828DDF0126
:10042000A80FB11D5D968C91928D9F5F9F73928FE7
:1004300090E008958FEF9FEF0895FC01918D828DDC
:10044000981731F0828DE80FF11D858D90E00895A9
:100450008FEF9FEF0895FC01918D228D892F90E001
:10046000805C9F4F821B91098F739927089588E4C0
:1004700093E00E942B0221E0892B09F420E0822FD7
:100480000895FC01848DDF01A80FB11DA35ABF4F51
:100490002C91848D90E001968F739927848FA68983
:1004A000B7892C93A089B1898C91837080648C93D7
:1004B000938D848D981306C00288F389E02D808186
:1004C0008F7D80830895EF92FF920F931F93CF93B8
:1004D000DF93EC0181E0888F9B8D8C8D981305C094
:1004E000E889F989808185FD26C0F62E0B8D10E004
:1004F0000F5F1F4F0F731127E02E8C8DE8120CC079
:100500000FB607FCFACFE889F989808185FFF5CF1E
:10051000CE010E944102F1CF8B8DFE01E80FF11D4B
:10052000E35AFF4FF0829FB7F8940B8FEA89FB895B
:10053000808180620AC09FB7F894EE89FF8960834A
:10054000E889F98980818370806480839FBF81E01E
:1005500090E0DF91CF911F910F91FF90EF90089560
:10056000CF93DF93EC01888D8823C9F0EA89FB895A
:10057000808185FD05C0A889B9898C9186FD0FC051
:100580000FB607FCF5CF808185FFF2CFA889B98926
:100590008C9185FFEDCFCE010E944102E7CFDF9124
:1005A000CF91089580E090E0892B21F00E943702DE
:1005B000811125C080E090E0892B41F080E090E03F
:1005C000892B21F00E94000081111CC080E090E086
:1005D000892B41F080E090E0892B21F00E940000FF
:1005E000811113C080E090E0892BA1F080E090E0C1
:1005F000892B81F00E94000081110AC008950E9499
:100600000000D8CF0E940000E1CF0E940000EACF96
:100610000C9400000895CF92DF92EF92FF920F9317
:100620001F93CF93DF936C018B017A01EC01CC5CBB
:10063000DC4F888187FF04C0FB011182108224C037
:100640002CE02C9DC0012D9D900D11242881AC0122
:10065000420F511D27FD5A952091750430E0421735
:10066000530794F42881AC01420F511D27FD5A9580
:100670009A01FA01EE0FFF1F2E0F3F1FF901EB51F8
:10068000FC4F208126FD19C088818F5F88832CE074
:100690002C9DC0012D9D900D11242881AC01420F8D
:1006A000511D27FD5A952091750430E042175307DC
:1006B000BCF428812C3044F113C02881820F911D95
:1006C00027FD9A95FC01EE0FFF1F8E0F9F1FFC0167
:1006D000EB51FC4F808160E08F730E943307D4CFD1
:1006E000F80180819181049680349C4918F480E45B
:1006F0009CE904C0F801808191810496F7019183FF
:1007000080838FEF888345C0F80140815181288123
:10071000BC01620F711D27FD7A959B01FB01EE0F55
:10072000FF1F2E0F3F1FF901EB51FC4F218132813A
:10073000240F351FF701318320832881AC01420F3C
:10074000511D27FD5A959A01FA01EE0FFF1F2E0F3A
:100750003F1FF901EB51FC4F208126FF1AC0288171
:10076000820F911D27FD9A95FC01EE0FFF1F8E0F42
:100770009F1FFC01EB51FC4F808161E08F73DF9183
:10078000CF911F910F91FF90EF90DF90CF900C943D
:100790003307DF91CF911F910F91FF90EF90DF9082
:1007A000CF90089582E192E00E94800661E089E0A6
:1007B0000E94330761E088E00C94330780E20E94D6
:1007C0000A0790933B0380933A038EE10E940A0745
:1007D00090933D0380933C038CE10E940A07909321
:1007E0003F0380933E038AE10E940A0790934703E8
:1007F0008093460388E10E940A0790934503809303
:10080000440386E10E940A079093410380934003CA
:1008100008950E94720D1F920F920FB60F9211242D
:100820000BB60F922F933F934F935F936F937F93EA
:100830008F939F93AF93BF93EF93FF9388E493E0DD
:100840000E944102FF91EF91BF91AF919F918F91D3
:100850007F916F915F914F913F912F910F900BBEC0
:100860000F900FBE0F901F9018951F920F920FB60A
:100870000F9211240BB60F922F938F939F93EF93A8
:10088000FF93E0915803F09159038081E0915E035A
:10089000F0915F0382FD12C09081809161038F5FB0
:1008A0008F7320916203821751F0E0916103F0E0B1
:1008B000E85BFC4F958F8093610301C08081FF91BD
:1008C000EF919F918F912F910F900BBE0F900FBEC4
:1008D0000F901F9018951F920F920FB60F92112430
:1008E0000BB60F922F933F934F935F936F937F932A
:1008F0008F939F93AF93BF93EF93FF9348E251E0A1
:1009000064E271E080E090E00E940B03FF91EF91C0
:10091000BF91AF919F918F917F916F915F914F9117
:100920003F912F910F900BBE0F900FBE0F901F9015
:1009300018951F920F920FB60F9211240BB60F92BB
:100940002F933F934F935F936F937F938F939F93D7
:10095000AF93BF93EF93FF9348EA50E064EA70E0EF
:1009600083E090E00E940B03FF91EF91BF91AF9164
:100970009F918F917F916F915F914F913F912F91B7
:100980000F900BBE0F900FBE0F901F9018951F92E7
:100990000F920FB60F9211240BB60F922F933F9325
:1009A0004F935F936F937F938F939F93AF93BF9377
:1009B000EF93FF9348E950E064E970E082E090E053
:1009C0000E940B03FF91EF91BF91AF919F918F9187
:1009D0007F916F915F914F913F912F910F900BBE3F
:1009E0000F900FBE0F901F9018951F920F920FB689
:1009F0000F9211240BB60F922F933F934F935F9357
:100A00006F937F938F939F93AF93BF93EF93FF93D6
:100A100048E850E064E870E081E090E00E940B0359
:100A2000FF91EF91BF91AF919F918F917F916F91C6
:100A30005F914F913F912F910F900BBE0F900FBE82
:100A40000F901F9018950F931F93CF93DF93EC0196
:100A50008B01888599850297F1F46130710569F001
:100A600024F4672BC1F460E009C06230710559F0CD
:100A70006330710581F460E007C061E08C850E94FD
:100A8000330761E005C061E08C850E94330760E0B8
:100A90008E850E943307888599850497B9F50130C2
:100AA0001105B1F04CF40115110581F561E08C855B
:100AB0000E94330760E011C002301105B9F0033025
:100AC000110521F561E08C850E94330760E013C0B9
:100AD00060E08C850E94330761E08E850E943307B9
:100AE00061E088890E94330760E00DC060E08C857A
:100AF0000E94330761E08E850E94330760E0888999
:100B00000E94330761E08A890E94330788859985AE
:100B1000059709F075C00A30110508F071C0F80199
:100B20008827EE58FF4F8F4F0C946A0D60E08C853C
:100B30000E94330761E051C060E08C850E9433075A
:100B400061E08E850E94330760E04BC060E08C85D9
:100B50000E94330761E08E850E94330760E0888938
:100B60000E94330761E041C060E001C061E08C8514
:100B70000E94330761E005C061E08C850E94330765
:100B800060E08E850E94330760E009C061E08C85DB
:100B90000E94330760E08E850E94330761E08889F8
:100BA0000E94330761E00DC061E08C850E9433072D
:100BB00060E08E850E94330761E088890E943307D8
:100BC00060E08A890E94330760E013C061E001C0E1
:100BD00060E08C850E94330760E08E850E943307B9
:100BE00061E088890E94330760E08A890E943307A8
:100BF00061E08C89DF91CF911F910F910C943307A5
:100C0000DF91CF911F910F91089590E0FC013197F2
:100C1000E231F10508F04EC08827E458FF4F8F4FAE
:100C20000C946A0D809180008F7703C080918000C2
:100C30008F7D80938000089580918000877FF9CF19
:100C400084B58F7702C084B58F7D84BD089580916F
:100C5000B0008F7703C08091B0008F7D8093B0008B
:100C60000895809190008F7707C0809190008F7DCC
:100C700003C080919000877F8093900008958091B9
:100C8000A0008F7707C08091A0008F7D03C0809166
:100C9000A000877F8093A0000895809120018F7726
:100CA00007C0809120018F7D03C080912001877F44
:100CB0008093200108953FB7F8948091B5049091F6
:100CC000B604A091B704B091B80426B5A89B05C09E
:100CD0002F3F19F00196A11DB11D3FBFBA2FA92FBB
:100CE000982F8827820F911DA11DB11DBC01CD0138
:100CF00042E0660F771F881F991F4A95D1F7089524
:100D0000CF93DF93009779F0FC0101900020E9F781
:100D10003197AF01481B590BBC0188E493E00E9456
:100D2000CC01EC0102C0C0E0D0E042E050E060E362
:100D300073E088E493E00E94CC018C0F9D1FDF914B
:100D4000CF91089508958F929F92AF92BF92EF92A4
:100D5000FF921F93CF93DF93FC011081103308F0B3
:100D60004FC0828128E532E07901E81AF10887FD59
:100D7000F394EE0CFF1CEE0CFF1C8181C8E8D0E060
:100D8000C81BD10987FDD395CC0FDD1FCC0FDD1F0C
:100D90004E010D2E000CAA08BB08C7010F2C000C39
:100DA000AA0BBB0B9C01AD01281939094A095B0943
:100DB000AAE5B0E00E942E0D24EB30E040E050E0C8
:100DC0000E940F0D820E931EA41EB51E8C169D064A
:100DD0002CF0E7018E149F040CF4E4012297CC0F51
:100DE000DD1F2FB7F894812F90E0FC01EE0FFF1F5D
:100DF0008E0F9F1FFC01EB51FC4FD283C1832FBF8D
:100E0000DF91CF911F91FF90EF90BF90AF909F9097
:100E10008F900895CF93DF93282F30E0F901E651AA
:100E2000FD4F8491F901EC55FD4FD491F901E25A3F
:100E3000FD4FC491CC2391F081110E940506EC2F47
:100E4000F0E0EE0FFF1FEC5BFD4FA591B491EC912C
:100E5000ED2381E090E021F480E002C080E090E0AA
:100E6000DF91CF9108951F93CF93DF93282F30E028
:100E7000F901E651FD4F8491F901EC55FD4FD491F4
:100E8000F901E25AFD4FC491CC23C1F0162F811114
:100E90000E940506EC2FF0E0EE0FFF1FE65DFD4F10
:100EA000A591B4919FB7F894111104C08C91D0957D
:100EB000D82302C0EC91DE2BDC939FBFDF91CF9152
:100EC0001F910895CF93DF9390E0FC01EC55FD4F07
:100ED0002491FC01E25AFD4F8491882361F190E056
:100EE000880F991FFC01E05FFD4FC591D491FC0173
:100EF000E65DFD4FA591B491611109C09FB7F894CB
:100F00008881209582238883EC912E230BC0623048
:100F100061F49FB7F8948881322F309583238883BA
:100F2000EC912E2B2C939FBF06C08FB7F894E881CD
:100F30002E2B28838FBFDF91CF9108951F93CF93DE
:100F4000DF93182FEB0161E00E946207209711F4F4
:100F500060E004C0CF3FD10539F461E0812FDF911B
:100F6000CF911F910C943307E12FF0E0E651FD4F34
:100F7000E4918E2F90E0FC013197E231F10508F009
:100F80009DC08827E257FF4F8F4F0C946A0D84B5A0
:100F9000806884BDC7BD97C084B5806284BDC8BD6C
:100FA00092C080918000806880938000D0938900F7
:100FB000C093880088C08091800080628093800008
:100FC000D0938B00C0938A007EC08091800088609F
:100FD00080938000D0938D00C0938C0074C080916A
:100FE000B00080688093B000C093B3006CC0809163
:100FF000B00080628093B000C093B40064C0809160
:101000009000806880939000D0939900C0939800DE
:101010005AC080919000806280939000D0939B0092
:10102000C0939A0050C08091900088608093900097
:10103000D0939D00C0939C0046C08091A000806822
:101040008093A0008091A0008F7B8093A000D0931C
:10105000A900C093A80037C08091A000806280934F
:10106000A000D093AB00C093AA002DC08091A00037
:1010700088608093A000D093AD00C093AC0023C0E3
:1010800080912001806880932001D0932901C09332
:10109000280119C080912001806280932001D093A3
:1010A0002B01C0932A010FC080912001886080939A
:1010B0002001D0932D01C0932C0105C0C038D1056B
:1010C0000CF04BCF45CFDF91CF911F9108958F92B8
:1010D0009F92AF92BF92CF92DF92EF92FF926B01FD
:1010E0007C010E945B064B015C01C114D104E10448
:1010F000F104F1F00E945B06DC01CB01881999092B
:10110000AA09BB09883E9340A105B10570F321E00F
:10111000C21AD108E108F10888EE880E83E0981E13
:10112000A11CB11CC114D104E104F10419F7DDCFF5
:10113000FF90EF90DF90CF90BF90AF909F908F90F7
:1011400008951F920F920FB60F9211242F933F9381
:101150008F939F93AF93BF938091B1049091B2040A
:10116000A091B304B091B4043091B00423E0230FF4
:101170002D3720F40196A11DB11D05C026E8230FCF
:101180000296A11DB11D2093B0048093B1049093E9
:10119000B204A093B304B093B4048091B5049091C9
:1011A000B604A091B704B091B8040196A11DB11D79
:1011B0008093B5049093B604A093B704B093B80499
:1011C000BF91AF919F918F913F912F910F900FBE43
:1011D0000F901F901895789484B5826084BD84B573
:1011E000816084BD85B5826085BD85B5816085BD22
:1011F00080916E00816080936E00109281008091DA
:101200008100826080938100809181008160809361
:101210008100809180008160809380008091B10086
:1012200084608093B1008091B00081608093B000B1
:101230008091910082608093910080919100816003
:1012400080939100809190008160809390008091C4
:10125000A10082608093A1008091A10081608093B1
:10126000A1008091A00081608093A0008091210165
:10127000826080932101809121018160809321010E
:101280008091200181608093200180917A008460A8
:1012900080937A0080917A00826080937A008091B6
:1012A0007A00816080937A0080917A0080688093D0
:1012B0007A001092C10061E08EE00E94620761E056
:1012C0008FE00E94620761E08BE00E94620761E0AC
:1012D00088E00E94620760E086E10E94620760E0A9
:1012E00088E10E94620760E08AE10E94620760E094
:1012F0008CE10E94620760E08EE10E94620760E07C
:1013000080E20E946207E0915803F091590382E065
:101310008083E0915403F09155031082E0915603CD
:10132000F09157038FEC808310926003E0915C038F
:10133000F0915D0386E08083E0915A03F0915B03B6
:10134000808180618083E0915A03F0915B0380810A
:1013500088608083E0915A03F0915B03808180680C
:101360008083E0915A03F0915B0380818F7D8083BD
:101370008DE192E00E94800689E794E00E94A30636
:1013800086E794E00E94A30686E994E00E94A20604
:101390008CE794E00E94A2060E94D2038091380359
:1013A00090913903892B09F0B7C00E94DE03809128
:1013B0004403909145030197F1F480914603909185
:1013C00047030197C1F4809140039091410381301C
:1013D000910589F420913E0330913F03232B59F46A
:1013E00020913C0330913D03232B29F49093390342
:1013F00080933803D3CF83E392E00E9480066AE0B3
:1014000070E080E090E00E946708C8CF65E070E07F
:1014100080E090E00E9467080E94DE0380913E0316
:1014200090913F03019709F09FC08CE592E00E94E4
:1014300080066EE571E080E090E00E9467080E94FF
:10144000DE0380913E0390913F03019709F0ECC0C9
:10145000C0913C03D0913D03C130D10509F0E4C0F7
:101460006CEE73E180E090E00E94670882E692E013
:101470000E948006D0934303C09342030E94DE0380
:1014800080913E0390913F03019709F4D0C00E94E0
:10149000DE038091420390914303019709F466C1F2
:1014A0000E94DE0380914403909145030197B1F4BB
:1014B00089E193E00E9480066FEF70E083E00E9474
:1014C0009E0761E08CE00E94330764E170E08BE0EE
:1014D0000E949E0761E08DE00E94330780914603E1
:1014E000909147030197B1F489E193E00E9480064F
:1014F00064E170E083E00E949E0761E08CE00E945E
:1015000033076FEF70E08BE00E949E0761E08DE093
:101510000E9433070E94D2020E94DE038BE492E015
:101520000E94800661E08CE00E94330760E089E061
:101530000E9433076FEF70E083E00E949E0761E036
:101540008DE00E94330760E088E00E9433076FEF70
:1015500070E08BE00E949E0780913C0390913D03D8
:10156000019709F08BCF52CF80E20E940A07909337
:101570003B0380933A0380913A0390913B03019798
:1015800061F480E20E940A0790933B0380933A0340
:101590008CE792E00E948006EECF81E992E00E9403
:1015A00080060E94D20368EC70E080E090E00E9428
:1015B00067088BE992E00E94800660E089E00E9463
:1015C000330760E08CE00E9433076FEF70E083E048
:1015D0000E949E0760E088E00E94330761E08DE092
:1015E0000E9433076FEF70E08BE00E949E0786E158
:1015F0000E940A0790934103809340038091400327
:1016000090914103892B61F486E10E940A0790932F
:101610004103809340038CEA92E00E948006EECF63
:1016200083EB92E00E9480060E94D20327CF8CEBCE
:1016300092E00E94800665E070E080E090E00E9409
:1016400067080E94DE0380913C0390913D0301975F
:1016500051F58CE592E00E9480066EE571E080E035
:1016600090E00E9467080E94DE0380913E03909103
:101670003F03019709F077C0C0913C03D0913D032F
:10168000C130D10509F06FC06CEE73E180E090E0ED
:101690000E94670882E692E00E948006D09343038E
:1016A000C0934203F4CE80E20E940A0790933B036A
:1016B00080933A0380913A0390913B03019761F440
:1016C00080E20E940A0790933B0380933A0380EDE7
:1016D00092E00E948006EECF81E992E00E948006AF
:1016E0000E94D20368EC70E080E090E00E946708FE
:1016F00084EE92E00E94800661E08CE00E94330755
:1017000060E089E00E9433076FEF70E083E00E94A1
:101710009E0760E08DE00E94330760E088E00E9451
:1017200033076FEF70E08BE00E949E0786E10E9416
:101730000A07909341038093400380914003909166
:101740004103892B61F486E10E940A0790934103CB
:10175000809340038CEA92E00E948006EECF83EBF8
:1017600092E00E9480060E94D20391CE86E10E9400
:101770000A07909341038093400380914003909126
:1017800041030197D9F461E08CE00E94330760E0E7
:1017900089E00E94330767E870E083E00E949E07BB
:1017A00061E08DE00E94330760E088E00E9433072B
:1017B00067E870E08BE00E949E07D8CF80914203DB
:1017C00090914303019709F06BCE0E94D20384EFFE
:1017D00092E00E948006F2CF0F931F93CF93DF9386
:1017E00010924B0310924A0388EE93E0A0E0B0E021
:1017F00080934C0390934D03A0934E03B0934F03FB
:1018000084E092E0909349038093480385EC90E054
:10181000909355038093540384EC90E09093570386
:101820008093560380EC90E0909359038093580383
:1018300081EC90E090935B0380935A0382EC90E0FC
:1018400090935D0380935C0386EC90E090935F033C
:1018500080935E03109261031092620310926303FF
:1018600010926403E9EBF4E08EEA91E0DF019C0161
:101870001D9221503040E1F78AEB94E090930206EC
:10188000809301061092A1041092A0041092970474
:10189000109296041092AC041092AD041092AE0413
:1018A0001092AF0408EC10E010939D0400939C0488
:1018B0008DE290E09093A3048093A2048FE290E0E5
:1018C0009093A5048093A40481E390E09093A704EF
:1018D0008093A60483E390E09093A9048093A804E6
:1018E00061E08DE20E94620761E08091A4040E94A1
:1018F000620761E08091A6040E94620761E0809126
:10190000A8040E9462071092AB041092AA04C4E0DB
:10191000D0E0D0939F04C0939E041092870410924D
:10192000860410927D0410927C041092920410920E
:1019300093041092940410929504109383040093DE
:10194000820489E190E090938904809388048BE17C
:1019500090E090938B0480938A048DE190E09093C3
:101960008D0480938C048FE190E090938F0480939A
:101970008E0461E089E10E94620761E080918A043F
:101980000E94620761E080918C040E94620761E01E
:1019900080918E040E94620710929104109290042C
:1019A000D0938504C0938404809175048033A0F49F
:1019B00091E0980F909375048093790490E0FC0176
:1019C000EE0FFF1F8E0F9F1FFC01EB51FC4F88EBAA
:1019D0009BE09283818303C08FEF80937904809191
:1019E00075048033A0F491E0980F90937504809370
:1019F000760490E0FC01EE0FFF1F8E0F9F1FFC018D
:101A0000EB51FC4F88EB9BE09283818303C08FEF07
:101A100080937604DF91CF911F910F910895052E49
:101A200097FB1EF400940E94260D57FD07D00E94DC
:101A3000390D07FC03D04EF40C94260D50954095BB
:101A4000309521953F4F4F4F5F4F0895909580956A
:101A5000709561957F4F8F4F9F4F08950E945B0D4A
:101A6000A59F900DB49F900DA49F800D911D1124F2
:101A70000895A1E21A2EAA1BBB1BFD010DC0AA1FCF
:101A8000BB1FEE1FFF1FA217B307E407F50720F0E7
:101A9000A21BB30BE40BF50B661F771F881F991F62
:101AA0001A9469F760957095809590959B01AC01AB
:101AB000BD01CF010895A29FB001B39FC001A39FB4
:101AC000700D811D1124911DB29F700D811D112477
:101AD000911D0895EE0FFF1F881F8BBF0790F69191
:101AE000E02D199481E090E0F8940C94770DF8942F
:021AF000FFCF26
:101AF200000000006302CC01FA01B0022B020902CD
:101B02001D026175746F2073746F70740053746179
:101B1200617420696E20686F6D65706F7369746996
:101B22006F6E004465206175746F2069732065656E
:101B32006E20696D62656369656C004472697669DD
:101B42006E67207374726169676874007061757A78
:101B5200650068696A207374616174206E7520691A
:101B62006E207A696A6E2073746F70005336206932
:101B720073207A77617274207265636874736F6D13
:101B820000533620697320776974004761617420BD
:101B92006E616172207265636874730053312077DD
:101BA2006974005331207A7761727400496B206244
:101BB200656E2065656E20696D62696369656C009A
:101BC2005336206973207A77617274206C696E6B68
:101BD200736F6D0047616174206E616172206C6980
:101BE2006E6B730068696A2069732061616E206898
:101BF20065742065696E64652076616E206865741F
:101C0200207472616A65637400636F7272696765DA
:101C1200657274206E61617220726563687473000C
:041C22000D0A0000A7
:00000001FF
